{
  "contractName": "VerificationEIP712",
  "abi": [
    {
      "inputs": [
        {
          "internalType": "uint256",
          "name": "_chainId",
          "type": "uint256"
        },
        {
          "internalType": "string",
          "name": "_name",
          "type": "string"
        },
        {
          "internalType": "string",
          "name": "_version",
          "type": "string"
        }
      ],
      "stateMutability": "nonpayable",
      "type": "constructor"
    },
    {
      "anonymous": false,
      "inputs": [
        {
          "indexed": true,
          "internalType": "address",
          "name": "previousOwner",
          "type": "address"
        },
        {
          "indexed": true,
          "internalType": "address",
          "name": "newOwner",
          "type": "address"
        }
      ],
      "name": "OwnershipTransferred",
      "type": "event"
    },
    {
      "anonymous": false,
      "inputs": [
        {
          "indexed": false,
          "internalType": "address",
          "name": "token",
          "type": "address"
        },
        {
          "indexed": false,
          "internalType": "address",
          "name": "user",
          "type": "address"
        },
        {
          "indexed": false,
          "internalType": "uint256",
          "name": "amount",
          "type": "uint256"
        },
        {
          "indexed": false,
          "internalType": "uint256",
          "name": "balance",
          "type": "uint256"
        }
      ],
      "name": "Withdraw",
      "type": "event"
    },
    {
      "inputs": [],
      "name": "owner",
      "outputs": [
        {
          "internalType": "address",
          "name": "",
          "type": "address"
        }
      ],
      "stateMutability": "view",
      "type": "function"
    },
    {
      "inputs": [],
      "name": "renounceOwnership",
      "outputs": [],
      "stateMutability": "nonpayable",
      "type": "function"
    },
    {
      "inputs": [
        {
          "internalType": "address",
          "name": "newOwner",
          "type": "address"
        }
      ],
      "name": "transferOwnership",
      "outputs": [],
      "stateMutability": "nonpayable",
      "type": "function"
    },
    {
      "stateMutability": "payable",
      "type": "receive"
    },
    {
      "inputs": [
        {
          "internalType": "uint8",
          "name": "v",
          "type": "uint8"
        },
        {
          "internalType": "bytes32",
          "name": "r",
          "type": "bytes32"
        },
        {
          "internalType": "bytes32",
          "name": "s",
          "type": "bytes32"
        },
        {
          "internalType": "string",
          "name": "action",
          "type": "string"
        },
        {
          "internalType": "address",
          "name": "sender",
          "type": "address"
        },
        {
          "internalType": "string",
          "name": "email",
          "type": "string"
        },
        {
          "internalType": "string",
          "name": "url",
          "type": "string"
        },
        {
          "internalType": "uint256",
          "name": "nonce",
          "type": "uint256"
        },
        {
          "internalType": "uint256",
          "name": "expiration",
          "type": "uint256"
        }
      ],
      "name": "verify",
      "outputs": [
        {
          "internalType": "bool",
          "name": "",
          "type": "bool"
        }
      ],
      "stateMutability": "view",
      "type": "function"
    },
    {
      "inputs": [],
      "name": "getBalance",
      "outputs": [
        {
          "internalType": "uint256",
          "name": "",
          "type": "uint256"
        }
      ],
      "stateMutability": "view",
      "type": "function"
    },
    {
      "inputs": [],
      "name": "destory",
      "outputs": [],
      "stateMutability": "nonpayable",
      "type": "function"
    },
    {
      "inputs": [
        {
          "internalType": "uint256",
          "name": "_amount",
          "type": "uint256"
        }
      ],
      "name": "withdrawEther",
      "outputs": [],
      "stateMutability": "payable",
      "type": "function"
    }
  ],
  "bytecode": "0x60806040523480156200001157600080fd5b5060405162000d2138038062000d2183398101604081905262000034916200023c565b6200003f3362000079565b6001839055815162000059906002906020850190620000c9565b5080516200006f906003906020840190620000c9565b50505050620002ed565b600080546001600160a01b038381166001600160a01b0319831681178455604051919092169283917f8be0079c531659141344cd1fd0a4f28419497f9722a3daafe3b4186f6b6457e09190a35050565b828054620000d790620002b0565b90600052602060002090601f016020900481019282620000fb576000855562000146565b82601f106200011657805160ff191683800117855562000146565b8280016001018555821562000146579182015b828111156200014657825182559160200191906001019062000129565b506200015492915062000158565b5090565b5b8082111562000154576000815560010162000159565b634e487b7160e01b600052604160045260246000fd5b600082601f8301126200019757600080fd5b81516001600160401b0380821115620001b457620001b46200016f565b604051601f8301601f19908116603f01168101908282118183101715620001df57620001df6200016f565b81604052838152602092508683858801011115620001fc57600080fd5b600091505b8382101562000220578582018301518183018401529082019062000201565b83821115620002325760008385830101525b9695505050505050565b6000806000606084860312156200025257600080fd5b835160208501519093506001600160401b03808211156200027257600080fd5b620002808783880162000185565b935060408601519150808211156200029757600080fd5b50620002a68682870162000185565b9150509250925092565b600181811c90821680620002c557607f821691505b60208210811415620002e757634e487b7160e01b600052602260045260246000fd5b50919050565b610a2480620002fd6000396000f3fe6080604052600436106100745760003560e01c8063715018a61161004e578063715018a6146100ca5780638b4eb103146100df5780638da5cb5b1461010f578063f2fde38b1461013757600080fd5b806312065fe0146100805780633bed33ce146100a05780636bdebcc9146100b557600080fd5b3661007b57005b600080fd5b34801561008c57600080fd5b506040514781526020015b60405180910390f35b6100b36100ae36600461074e565b610157565b005b3480156100c157600080fd5b506100b361023b565b3480156100d657600080fd5b506100b3610307565b3480156100eb57600080fd5b506100ff6100fa366004610840565b61036d565b6040519015158152602001610097565b34801561011b57600080fd5b506000546040516001600160a01b039091168152602001610097565b34801561014357600080fd5b506100b3610152366004610911565b610604565b6000546001600160a01b031633146101b65760405162461bcd60e51b815260206004820181905260248201527f4f776e61626c653a2063616c6c6572206973206e6f7420746865206f776e657260448201526064015b60405180910390fd5b804710156101c357600080fd5b604051339082156108fc029083906000818181858888f193505050501580156101f0573d6000803e3d6000fd5b5060408051600081523360208201529081018290524760608201527ff341246adaac6f497bc2a656f546ab9e182111d630394f0c57c710a59a2cb5679060800160405180910390a150565b6000546001600160a01b031633146102955760405162461bcd60e51b815260206004820181905260248201527f4f776e61626c653a2063616c6c6572206973206e6f7420746865206f776e657260448201526064016101ad565b6000306001600160a01b0316638da5cb5b6040518163ffffffff1660e01b8152600401602060405180830381865afa1580156102d5573d6000803e3d6000fd5b505050506040513d601f19601f820116820180604052508101906102f99190610935565b9050806001600160a01b0316ff5b6000546001600160a01b031633146103615760405162461bcd60e51b815260206004820181905260248201527f4f776e61626c653a2063616c6c6572206973206e6f7420746865206f776e657260448201526064016101ad565b61036b60006106e6565b565b60008142106103be5760405162461bcd60e51b815260206004820152601560248201527f5369676e6174757265206861732065787069726564000000000000000000000060448201526064016101ad565b60007f8b73c3c69bb8fe3d512ecc4cf759cc79239f7b179b0ffacaa9a75d522b39400f60026040516103f09190610952565b604051809103902060036040516104079190610952565b6040805191829003822060015460208085019690965283830194909452606083015260808201929092523060a0808301919091528251808303909101815260c0820183528051908401208b518c8501208a518b8601208a518b8701207f4e22cc164abc7c82752a150be143e7a7770ab7f4adc372158c041c225d54273560e08601526101008501929092526001600160a01b038d1661012085015261014084015261016083015261018082018890526101a0808301889052835180840390910181526101c083019093528251929093019190912061190160f01b6101e08301526101e2820183905261020282018190529192506000906102220160405160208183030381529060405280519060200120905060006001828f8f8f60405160008152602001604052604051610557949392919093845260ff9290921660208401526040830152606082015260800190565b6020604051602081039080840390855afa158015610579573d6000803e3d6000fd5b5050604051601f1901519150506001600160a01b0381166105dc5760405162461bcd60e51b815260206004820152601860248201527f45434453413a20496e76616c6964207369676e6174757265000000000000000060448201526064016101ad565b896001600160a01b0316816001600160a01b0316149450505050509998505050505050505050565b6000546001600160a01b0316331461065e5760405162461bcd60e51b815260206004820181905260248201527f4f776e61626c653a2063616c6c6572206973206e6f7420746865206f776e657260448201526064016101ad565b6001600160a01b0381166106da5760405162461bcd60e51b815260206004820152602660248201527f4f776e61626c653a206e6577206f776e657220697320746865207a65726f206160448201527f646472657373000000000000000000000000000000000000000000000000000060648201526084016101ad565b6106e3816106e6565b50565b600080546001600160a01b038381167fffffffffffffffffffffffff0000000000000000000000000000000000000000831681178455604051919092169283917f8be0079c531659141344cd1fd0a4f28419497f9722a3daafe3b4186f6b6457e09190a35050565b60006020828403121561076057600080fd5b5035919050565b803560ff8116811461077857600080fd5b919050565b634e487b7160e01b600052604160045260246000fd5b600082601f8301126107a457600080fd5b813567ffffffffffffffff808211156107bf576107bf61077d565b604051601f8301601f19908116603f011681019082821181831017156107e7576107e761077d565b8160405283815286602085880101111561080057600080fd5b836020870160208301376000602085830101528094505050505092915050565b6001600160a01b03811681146106e357600080fd5b803561077881610820565b60008060008060008060008060006101208a8c03121561085f57600080fd5b6108688a610767565b985060208a0135975060408a0135965060608a013567ffffffffffffffff8082111561089357600080fd5b61089f8d838e01610793565b97506108ad60808d01610835565b965060a08c01359150808211156108c357600080fd5b6108cf8d838e01610793565b955060c08c01359150808211156108e557600080fd5b506108f28c828d01610793565b93505060e08a013591506101008a013590509295985092959850929598565b60006020828403121561092357600080fd5b813561092e81610820565b9392505050565b60006020828403121561094757600080fd5b815161092e81610820565b600080835481600182811c91508083168061096e57607f831692505b602080841082141561098e57634e487b7160e01b86526022600452602486fd5b8180156109a257600181146109b3576109e0565b60ff198616895284890196506109e0565b60008a81526020902060005b868110156109d85781548b8201529085019083016109bf565b505084890196505b50949897505050505050505056fea264697066735822122035b626f85cb6e43b74d82879d48bcd561a622293ab75f5d92774d5b3c08f066764736f6c634300080a0033",
  "immutableReferences": {},
  "source": "// SPDX-License-Identifier: MIT\n// ----------------------------------------------------------------------------\n// This smart contract can easily verify any Ethereum signed message signature.\n// You just have to provide the Ethereum address that signed the message,\n// the  generated signature and the message that has to be verified.\n\n// Updated     : To support Solidity version ^0.8.3\n// Programmer  : Idris Bowman\n// Link        : https://idrisbowman.com\n// Last test   : locally 12/29/21 (https://github.com/V00D00-child/web3-cloud-verification/blob/main/test/Verificationeip712.test.js)\n\n// ----------------------------------------------------------------------------\nimport \"@openzeppelin/contracts/access/Ownable.sol\";\n\ncontract VerificationEIP712 is Ownable  {\n    uint256 private chainId;\n    string private name;\n    string private version;\n    address constant ETHER = address(0);\n    event Withdraw(address token, address user, uint256 amount, uint256 balance);\n\n    // Structs\n    struct Identity {\n        string action;\n        address signer; \n        string email;\n        string url;\n        string version;\n        uint256 nonce;\n        uint256 expiration;\n    }\n  \n    constructor(uint256 _chainId, string memory _name, string memory _version) Ownable() {\n        chainId = _chainId;\n        name = _name;\n        version = _version;\n    }\n\n    function verify(\n        uint8 v,\n        bytes32 r,\n        bytes32 s,\n        string memory action,\n        address sender,\n        string memory email,\n        string memory url,\n        uint256 nonce,\n        uint256 expiration\n    ) public view returns (bool) {\n            require(block.timestamp < expiration, \"Signature has expired\");\n\n            // get domain hash\n            bytes32 DOMAIN_SEPARATOR_HASH = keccak256(\n                abi.encode(\n                    keccak256(\"EIP712Domain(string name,string version,uint256 chainId,address verifyingContract)\"),\n                    keccak256(bytes(name)),\n                    keccak256(bytes(version)),\n                    chainId,\n                    address(this)\n                )\n            );\n\n            // get struct hash\n            bytes32 structHash = keccak256(\n                    abi.encode(\n                        keccak256(\"Identity(string action,address signer,string email,string url,uint256 nonce,uint256 expiration)\"),\n                        keccak256(bytes(action)),\n                        sender,\n                        keccak256(bytes(email)),\n                        keccak256(bytes(url)),\n                        nonce,\n                        expiration\n                    )\n            );\n\n            // verify signature\n            bytes32 hash = keccak256(abi.encodePacked(\"\\x19\\x01\", DOMAIN_SEPARATOR_HASH, structHash));\n            address signer = ecrecover(hash, v, r, s);\n            require(signer != address(0), \"ECDSA: Invalid signature\");\n            return signer == sender;\n    }\n\n        receive() external payable {}\n     \n    function getBalance() public view returns (uint) {\n        return address(this).balance;\n    }\n\n    function destory() public onlyOwner {\n        address _owner = this.owner();\n        selfdestruct(payable(_owner)); \n    }\n\n    function withdrawEther(uint256 _amount) payable public onlyOwner {\n        require(address(this).balance >= _amount);\n        payable(msg.sender).transfer(_amount);\n        emit Withdraw(ETHER, msg.sender, _amount, address(this).balance);\n    }\n}",
  "sourcePath": "/Users/corndog2/Desktop/blockchain-poc-v2/web3-cloud-verification/contracts/arbitrum/VerificationEIP712.sol",
  "compiler": {
    "name": "solc",
    "version": "0.8.10+commit.fc410830.Emscripten.clang"
  },
  "schemaVersion": "3.4.3",
  "updatedAt": "2021-12-13T20:47:14.564Z",
  "devdoc": {
    "kind": "dev",
    "methods": {
      "owner()": {
        "details": "Returns the address of the current owner."
      },
      "renounceOwnership()": {
        "details": "Leaves the contract without owner. It will not be possible to call `onlyOwner` functions anymore. Can only be called by the current owner. NOTE: Renouncing ownership will leave the contract without an owner, thereby removing any functionality that is only available to the owner."
      },
      "transferOwnership(address)": {
        "details": "Transfers ownership of the contract to a new account (`newOwner`). Can only be called by the current owner."
      }
    },
    "version": 1
  },
  "userdoc": {
    "kind": "user",
    "methods": {},
    "version": 1
  }
}