{
  "contractName": "VerificationBase",
  "abi": [
    {
      "inputs": [],
      "stateMutability": "nonpayable",
      "type": "constructor"
    },
    {
      "anonymous": false,
      "inputs": [
        {
          "indexed": true,
          "internalType": "address",
          "name": "previousOwner",
          "type": "address"
        },
        {
          "indexed": true,
          "internalType": "address",
          "name": "newOwner",
          "type": "address"
        }
      ],
      "name": "OwnershipTransferred",
      "type": "event"
    },
    {
      "anonymous": false,
      "inputs": [
        {
          "indexed": false,
          "internalType": "address",
          "name": "token",
          "type": "address"
        },
        {
          "indexed": false,
          "internalType": "address",
          "name": "user",
          "type": "address"
        },
        {
          "indexed": false,
          "internalType": "uint256",
          "name": "amount",
          "type": "uint256"
        },
        {
          "indexed": false,
          "internalType": "uint256",
          "name": "balance",
          "type": "uint256"
        }
      ],
      "name": "Withdraw",
      "type": "event"
    },
    {
      "inputs": [],
      "name": "owner",
      "outputs": [
        {
          "internalType": "address",
          "name": "",
          "type": "address"
        }
      ],
      "stateMutability": "view",
      "type": "function",
      "constant": true
    },
    {
      "inputs": [],
      "name": "renounceOwnership",
      "outputs": [],
      "stateMutability": "nonpayable",
      "type": "function"
    },
    {
      "inputs": [
        {
          "internalType": "address",
          "name": "newOwner",
          "type": "address"
        }
      ],
      "name": "transferOwnership",
      "outputs": [],
      "stateMutability": "nonpayable",
      "type": "function"
    },
    {
      "stateMutability": "payable",
      "type": "receive",
      "payable": true
    },
    {
      "inputs": [
        {
          "internalType": "address",
          "name": "_to",
          "type": "address"
        },
        {
          "internalType": "string",
          "name": "_message",
          "type": "string"
        },
        {
          "internalType": "uint256",
          "name": "_nonce",
          "type": "uint256"
        }
      ],
      "name": "getMessageHash",
      "outputs": [
        {
          "internalType": "bytes32",
          "name": "",
          "type": "bytes32"
        }
      ],
      "stateMutability": "pure",
      "type": "function",
      "constant": true
    },
    {
      "inputs": [
        {
          "internalType": "bytes32",
          "name": "_messageHash",
          "type": "bytes32"
        }
      ],
      "name": "getEthSignedMessageHash",
      "outputs": [
        {
          "internalType": "bytes32",
          "name": "",
          "type": "bytes32"
        }
      ],
      "stateMutability": "pure",
      "type": "function",
      "constant": true
    },
    {
      "inputs": [
        {
          "internalType": "address",
          "name": "_signer",
          "type": "address"
        },
        {
          "internalType": "bytes32",
          "name": "_messageHash",
          "type": "bytes32"
        },
        {
          "internalType": "bytes",
          "name": "signature",
          "type": "bytes"
        }
      ],
      "name": "verify",
      "outputs": [
        {
          "internalType": "bool",
          "name": "",
          "type": "bool"
        }
      ],
      "stateMutability": "pure",
      "type": "function",
      "constant": true
    },
    {
      "inputs": [
        {
          "internalType": "bytes32",
          "name": "_ethSignedMessageHash",
          "type": "bytes32"
        },
        {
          "internalType": "bytes",
          "name": "_signature",
          "type": "bytes"
        }
      ],
      "name": "recoverSigner",
      "outputs": [
        {
          "internalType": "address",
          "name": "",
          "type": "address"
        }
      ],
      "stateMutability": "pure",
      "type": "function",
      "constant": true
    },
    {
      "inputs": [
        {
          "internalType": "bytes",
          "name": "sig",
          "type": "bytes"
        }
      ],
      "name": "splitSignature",
      "outputs": [
        {
          "internalType": "bytes32",
          "name": "r",
          "type": "bytes32"
        },
        {
          "internalType": "bytes32",
          "name": "s",
          "type": "bytes32"
        },
        {
          "internalType": "uint8",
          "name": "v",
          "type": "uint8"
        }
      ],
      "stateMutability": "pure",
      "type": "function",
      "constant": true
    },
    {
      "inputs": [],
      "name": "getBalance",
      "outputs": [
        {
          "internalType": "uint256",
          "name": "",
          "type": "uint256"
        }
      ],
      "stateMutability": "view",
      "type": "function",
      "constant": true
    },
    {
      "inputs": [],
      "name": "destory",
      "outputs": [],
      "stateMutability": "nonpayable",
      "type": "function"
    },
    {
      "inputs": [
        {
          "internalType": "uint256",
          "name": "_amount",
          "type": "uint256"
        }
      ],
      "name": "withdrawEther",
      "outputs": [],
      "stateMutability": "payable",
      "type": "function",
      "payable": true
    }
  ],
  "bytecode": "0x608060405234801561001057600080fd5b5061001a3361001f565b61006f565b600080546001600160a01b038381166001600160a01b0319831681178455604051919092169283917f8be0079c531659141344cd1fd0a4f28419497f9722a3daafe3b4186f6b6457e09190a35050565b610aa78061007e6000396000f3fe6080604052600436106100c05760003560e01c8063715018a611610074578063a7bb58031161004e578063a7bb5803146101d3578063f2fde38b14610211578063fa5408011461023157600080fd5b8063715018a61461016c5780638da5cb5b1461018157806397aba7f9146101b357600080fd5b80631a86b550116100a55780631a86b550146101125780633bed33ce146101425780636bdebcc91461015757600080fd5b8063082d8f29146100cc57806312065fe0146100ff57600080fd5b366100c757005b600080fd5b3480156100d857600080fd5b506100ec6100e736600461084c565b61029f565b6040519081526020015b60405180910390f35b34801561010b57600080fd5b50476100ec565b34801561011e57600080fd5b5061013261012d3660046108e0565b6102d5565b60405190151581526020016100f6565b610155610150366004610939565b610358565b005b34801561016357600080fd5b5061015561043c565b34801561017857600080fd5b50610155610508565b34801561018d57600080fd5b506000546001600160a01b03165b6040516001600160a01b0390911681526020016100f6565b3480156101bf57600080fd5b5061019b6101ce366004610952565b61056e565b3480156101df57600080fd5b506101f36101ee366004610999565b6105ed565b60408051938452602084019290925260ff16908201526060016100f6565b34801561021d57600080fd5b5061015561022c3660046109d6565b610661565b34801561023d57600080fd5b506100ec61024c366004610939565b6040517f19457468657265756d205369676e6564204d6573736167653a0a3332000000006020820152603c8101829052600090605c01604051602081830303815290604052805190602001209050919050565b60008383836040516020016102b6939291906109f3565b6040516020818303038152906040528051906020012090509392505050565b60008061032f846040517f19457468657265756d205369676e6564204d6573736167653a0a3332000000006020820152603c8101829052600090605c01604051602081830303815290604052805190602001209050919050565b9050846001600160a01b0316610345828561056e565b6001600160a01b03161495945050505050565b6000546001600160a01b031633146103b75760405162461bcd60e51b815260206004820181905260248201527f4f776e61626c653a2063616c6c6572206973206e6f7420746865206f776e657260448201526064015b60405180910390fd5b804710156103c457600080fd5b604051339082156108fc029083906000818181858888f193505050501580156103f1573d6000803e3d6000fd5b5060408051600081523360208201529081018290524760608201527ff341246adaac6f497bc2a656f546ab9e182111d630394f0c57c710a59a2cb5679060800160405180910390a150565b6000546001600160a01b031633146104965760405162461bcd60e51b815260206004820181905260248201527f4f776e61626c653a2063616c6c6572206973206e6f7420746865206f776e657260448201526064016103ae565b6000306001600160a01b0316638da5cb5b6040518163ffffffff1660e01b8152600401602060405180830381865afa1580156104d6573d6000803e3d6000fd5b505050506040513d601f19601f820116820180604052508101906104fa9190610a54565b9050806001600160a01b0316ff5b6000546001600160a01b031633146105625760405162461bcd60e51b815260206004820181905260248201527f4f776e61626c653a2063616c6c6572206973206e6f7420746865206f776e657260448201526064016103ae565b61056c6000610743565b565b60008060008061057d856105ed565b6040805160008152602081018083528b905260ff8316918101919091526060810184905260808101839052929550909350915060019060a0016020604051602081039080840390855afa1580156105d8573d6000803e3d6000fd5b5050604051601f190151979650505050505050565b600080600083516041146106435760405162461bcd60e51b815260206004820152601860248201527f696e76616c6964207369676e6174757265206c656e677468000000000000000060448201526064016103ae565b50505060208101516040820151606090920151909260009190911a90565b6000546001600160a01b031633146106bb5760405162461bcd60e51b815260206004820181905260248201527f4f776e61626c653a2063616c6c6572206973206e6f7420746865206f776e657260448201526064016103ae565b6001600160a01b0381166107375760405162461bcd60e51b815260206004820152602660248201527f4f776e61626c653a206e6577206f776e657220697320746865207a65726f206160448201527f646472657373000000000000000000000000000000000000000000000000000060648201526084016103ae565b61074081610743565b50565b600080546001600160a01b038381167fffffffffffffffffffffffff0000000000000000000000000000000000000000831681178455604051919092169283917f8be0079c531659141344cd1fd0a4f28419497f9722a3daafe3b4186f6b6457e09190a35050565b6001600160a01b038116811461074057600080fd5b634e487b7160e01b600052604160045260246000fd5b600067ffffffffffffffff808411156107f1576107f16107c0565b604051601f8501601f19908116603f01168101908282118183101715610819576108196107c0565b8160405280935085815286868601111561083257600080fd5b858560208301376000602087830101525050509392505050565b60008060006060848603121561086157600080fd5b833561086c816107ab565b9250602084013567ffffffffffffffff81111561088857600080fd5b8401601f8101861361089957600080fd5b6108a8868235602084016107d6565b925050604084013590509250925092565b600082601f8301126108ca57600080fd5b6108d9838335602085016107d6565b9392505050565b6000806000606084860312156108f557600080fd5b8335610900816107ab565b925060208401359150604084013567ffffffffffffffff81111561092357600080fd5b61092f868287016108b9565b9150509250925092565b60006020828403121561094b57600080fd5b5035919050565b6000806040838503121561096557600080fd5b82359150602083013567ffffffffffffffff81111561098357600080fd5b61098f858286016108b9565b9150509250929050565b6000602082840312156109ab57600080fd5b813567ffffffffffffffff8111156109c257600080fd5b6109ce848285016108b9565b949350505050565b6000602082840312156109e857600080fd5b81356108d9816107ab565b6bffffffffffffffffffffffff198460601b1681526000835160005b81811015610a2c5760208187018101516014868401015201610a0f565b81811115610a3e576000601483860101525b5060149201918201929092526034019392505050565b600060208284031215610a6657600080fd5b81516108d9816107ab56fea2646970667358221220b7e5ee9aec73779aa39ef8c42e3c916f8894c20aea85c0eed6a1cbf8678cf7dc64736f6c634300080a0033",
  "immutableReferences": {},
  "source": "// SPDX-License-Identifier: MIT\n// ----------------------------------------------------------------------------\n// This smart contract can easily verify any Ethereum signed message signature.\n// You just have to provide the Ethereum address that signed the message,\n// the  generated signature and the message that has to be verified.\n\n// Updated     : To support Solidity version ^0.8.3\n// Programmer  : Idris Bowman\n// Link        : https://idrisbowman.com\n// Last test   : locally 11/29/21 (https://github.com/V00D00-child/web3-cloud-verification/blob/main/test/VerificationBase.test.js)\n\n// ----------------------------------------------------------------------------\n\npragma solidity ^0.8.3;\n\nimport \"@openzeppelin/contracts/access/Ownable.sol\";\n\ncontract VerificationBase is Ownable {\n    address constant ETHER = address(0);\n    event Withdraw(address token, address user, uint256 amount, uint256 balance);\n\n    constructor() Ownable() {\n    }\n\n    function getMessageHash(address _to, string memory _message, uint _nonce) public pure returns (bytes32) {\n        return keccak256(abi.encodePacked(_to, _message, _nonce));\n    }\n\n    function getEthSignedMessageHash(bytes32 _messageHash) public pure returns (bytes32) {\n        /*\n        Signature is produced by signing a keccak256 hash with the following format:\n        \"\\x19Ethereum Signed Message\\n\" + len(msg) + msg\n        */\n        return\n            keccak256(\n                abi.encodePacked(\"\\x19Ethereum Signed Message:\\n32\", _messageHash)\n            );\n    }\n\n     /**\n     * @notice This function is used to verify a Ethereum Signed Message\n     * to this contract.\n     * @param _signer address Ethereum address that claimed to sign the message\n     * @param _messageHash bytes32 keccak256 message hashed to be signed\n     * @param signature bytes The signature\n    */\n    function verify(address _signer, bytes32 _messageHash, bytes memory signature) public pure returns (bool) {\n        bytes32 ethSignedMessageHash = getEthSignedMessageHash(_messageHash);\n\n        return recoverSigner(ethSignedMessageHash, signature) == _signer;\n    }\n\n    function recoverSigner(bytes32 _ethSignedMessageHash, bytes memory _signature) public pure returns (address) {\n        (bytes32 r, bytes32 s, uint8 v) = splitSignature(_signature);\n\n        return ecrecover(_ethSignedMessageHash, v, r, s);\n    }\n\n    function splitSignature(bytes memory sig) public pure\n        returns (\n            bytes32 r,\n            bytes32 s,\n            uint8 v\n        )\n    {\n        require(sig.length == 65, \"invalid signature length\");\n\n        assembly {\n            r := mload(add(sig, 32))\n            s := mload(add(sig, 64))\n            v := byte(0, mload(add(sig, 96)))\n        }\n    }\n\n    receive() external payable {}\n     \n    function getBalance() public view returns (uint) {\n        return address(this).balance;\n    }\n\n    function destory() public onlyOwner {\n        address _owner = this.owner();\n        selfdestruct(payable(_owner)); \n    }\n\n    function withdrawEther(uint256 _amount) payable public onlyOwner {\n        require(address(this).balance >= _amount);\n        payable(msg.sender).transfer(_amount);\n        emit Withdraw(ETHER, msg.sender, _amount, address(this).balance);\n    }\n}",
  "sourcePath": "/Users/corndog2/Desktop/blockchain-poc-v2/web3-cloud-verification/contracts/arbitrum/VerificationBase.sol",
  "compiler": {
    "name": "solc",
    "version": "0.8.10+commit.fc410830.Emscripten.clang"
  },
  "schemaVersion": "3.4.3",
  "updatedAt": "2021-12-13T20:47:24.367Z",
  "networkType": "ethereum",
  "devdoc": {
    "kind": "dev",
    "methods": {
      "owner()": {
        "details": "Returns the address of the current owner."
      },
      "renounceOwnership()": {
        "details": "Leaves the contract without owner. It will not be possible to call `onlyOwner` functions anymore. Can only be called by the current owner. NOTE: Renouncing ownership will leave the contract without an owner, thereby removing any functionality that is only available to the owner."
      },
      "transferOwnership(address)": {
        "details": "Transfers ownership of the contract to a new account (`newOwner`). Can only be called by the current owner."
      },
      "verify(address,bytes32,bytes)": {
        "params": {
          "_messageHash": "bytes32 keccak256 message hashed to be signed",
          "_signer": "address Ethereum address that claimed to sign the message",
          "signature": "bytes The signature"
        }
      }
    },
    "version": 1
  },
  "userdoc": {
    "kind": "user",
    "methods": {
      "verify(address,bytes32,bytes)": {
        "notice": "This function is used to verify a Ethereum Signed Message to this contract."
      }
    },
    "version": 1
  }
}