{
  "contractName": "VerificationEIP712",
  "abi": [
    {
      "inputs": [
        {
          "internalType": "uint256",
          "name": "_chainId",
          "type": "uint256"
        },
        {
          "internalType": "string",
          "name": "_name",
          "type": "string"
        },
        {
          "internalType": "string",
          "name": "_version",
          "type": "string"
        }
      ],
      "stateMutability": "nonpayable",
      "type": "constructor"
    },
    {
      "anonymous": false,
      "inputs": [
        {
          "indexed": true,
          "internalType": "address",
          "name": "previousOwner",
          "type": "address"
        },
        {
          "indexed": true,
          "internalType": "address",
          "name": "newOwner",
          "type": "address"
        }
      ],
      "name": "OwnershipTransferred",
      "type": "event"
    },
    {
      "anonymous": false,
      "inputs": [
        {
          "indexed": false,
          "internalType": "address",
          "name": "token",
          "type": "address"
        },
        {
          "indexed": false,
          "internalType": "address",
          "name": "user",
          "type": "address"
        },
        {
          "indexed": false,
          "internalType": "uint256",
          "name": "amount",
          "type": "uint256"
        },
        {
          "indexed": false,
          "internalType": "uint256",
          "name": "balance",
          "type": "uint256"
        }
      ],
      "name": "Withdraw",
      "type": "event"
    },
    {
      "inputs": [],
      "name": "owner",
      "outputs": [
        {
          "internalType": "address",
          "name": "",
          "type": "address"
        }
      ],
      "stateMutability": "view",
      "type": "function",
      "constant": true
    },
    {
      "inputs": [],
      "name": "renounceOwnership",
      "outputs": [],
      "stateMutability": "nonpayable",
      "type": "function"
    },
    {
      "inputs": [
        {
          "internalType": "address",
          "name": "newOwner",
          "type": "address"
        }
      ],
      "name": "transferOwnership",
      "outputs": [],
      "stateMutability": "nonpayable",
      "type": "function"
    },
    {
      "stateMutability": "payable",
      "type": "receive",
      "payable": true
    },
    {
      "inputs": [
        {
          "internalType": "uint8",
          "name": "v",
          "type": "uint8"
        },
        {
          "internalType": "bytes32",
          "name": "r",
          "type": "bytes32"
        },
        {
          "internalType": "bytes32",
          "name": "s",
          "type": "bytes32"
        },
        {
          "internalType": "string",
          "name": "action",
          "type": "string"
        },
        {
          "internalType": "address",
          "name": "sender",
          "type": "address"
        },
        {
          "internalType": "string",
          "name": "email",
          "type": "string"
        },
        {
          "internalType": "string",
          "name": "url",
          "type": "string"
        },
        {
          "internalType": "uint256",
          "name": "nonce",
          "type": "uint256"
        },
        {
          "internalType": "uint256",
          "name": "expiration",
          "type": "uint256"
        }
      ],
      "name": "verify",
      "outputs": [
        {
          "internalType": "bool",
          "name": "",
          "type": "bool"
        }
      ],
      "stateMutability": "view",
      "type": "function",
      "constant": true
    },
    {
      "inputs": [],
      "name": "getBalance",
      "outputs": [
        {
          "internalType": "uint256",
          "name": "",
          "type": "uint256"
        }
      ],
      "stateMutability": "view",
      "type": "function",
      "constant": true
    },
    {
      "inputs": [],
      "name": "destory",
      "outputs": [],
      "stateMutability": "nonpayable",
      "type": "function"
    },
    {
      "inputs": [
        {
          "internalType": "uint256",
          "name": "_amount",
          "type": "uint256"
        }
      ],
      "name": "withdrawEther",
      "outputs": [],
      "stateMutability": "payable",
      "type": "function",
      "payable": true
    }
  ],
  "bytecode": "0x60806040523480156200001157600080fd5b5060405162001769380380620017698339818101604052810190620000379190620003ed565b620000576200004b6200009960201b60201c565b620000a160201b60201c565b8260018190555081600290805190602001906200007692919062000165565b5080600390805190602001906200008f92919062000165565b50505050620004ec565b600033905090565b60008060009054906101000a900473ffffffffffffffffffffffffffffffffffffffff169050816000806101000a81548173ffffffffffffffffffffffffffffffffffffffff021916908373ffffffffffffffffffffffffffffffffffffffff1602179055508173ffffffffffffffffffffffffffffffffffffffff168173ffffffffffffffffffffffffffffffffffffffff167f8be0079c531659141344cd1fd0a4f28419497f9722a3daafe3b4186f6b6457e060405160405180910390a35050565b8280546200017390620004b6565b90600052602060002090601f016020900481019282620001975760008555620001e3565b82601f10620001b257805160ff1916838001178555620001e3565b82800160010185558215620001e3579182015b82811115620001e2578251825591602001919060010190620001c5565b5b509050620001f29190620001f6565b5090565b5b8082111562000211576000816000905550600101620001f7565b5090565b6000604051905090565b600080fd5b600080fd5b6000819050919050565b6200023e8162000229565b81146200024a57600080fd5b50565b6000815190506200025e8162000233565b92915050565b600080fd5b600080fd5b6000601f19601f8301169050919050565b7f4e487b7100000000000000000000000000000000000000000000000000000000600052604160045260246000fd5b620002b9826200026e565b810181811067ffffffffffffffff82111715620002db57620002da6200027f565b5b80604052505050565b6000620002f062000215565b9050620002fe8282620002ae565b919050565b600067ffffffffffffffff8211156200032157620003206200027f565b5b6200032c826200026e565b9050602081019050919050565b60005b83811015620003595780820151818401526020810190506200033c565b8381111562000369576000848401525b50505050565b600062000386620003808462000303565b620002e4565b905082815260208101848484011115620003a557620003a462000269565b5b620003b284828562000339565b509392505050565b600082601f830112620003d257620003d162000264565b5b8151620003e48482602086016200036f565b91505092915050565b6000806000606084860312156200040957620004086200021f565b5b600062000419868287016200024d565b935050602084015167ffffffffffffffff8111156200043d576200043c62000224565b5b6200044b86828701620003ba565b925050604084015167ffffffffffffffff8111156200046f576200046e62000224565b5b6200047d86828701620003ba565b9150509250925092565b7f4e487b7100000000000000000000000000000000000000000000000000000000600052602260045260246000fd5b60006002820490506001821680620004cf57607f821691505b60208210811415620004e657620004e562000487565b5b50919050565b61126d80620004fc6000396000f3fe6080604052600436106100745760003560e01c8063715018a61161004e578063715018a6146100de5780638b4eb103146100f55780638da5cb5b14610132578063f2fde38b1461015d5761007b565b806312065fe0146100805780633bed33ce146100ab5780636bdebcc9146100c75761007b565b3661007b57005b600080fd5b34801561008c57600080fd5b50610095610186565b6040516100a29190610898565b60405180910390f35b6100c560048036038101906100c091906108f3565b61018e565b005b3480156100d357600080fd5b506100dc61029f565b005b3480156100ea57600080fd5b506100f36103a7565b005b34801561010157600080fd5b5061011c60048036038101906101179190610b33565b61042f565b6040516101299190610c6c565b60405180910390f35b34801561013e57600080fd5b50610147610692565b6040516101549190610c96565b60405180910390f35b34801561016957600080fd5b50610184600480360381019061017f9190610cb1565b6106bb565b005b600047905090565b6101966107b3565b73ffffffffffffffffffffffffffffffffffffffff166101b4610692565b73ffffffffffffffffffffffffffffffffffffffff161461020a576040517f08c379a000000000000000000000000000000000000000000000000000000000815260040161020190610d3b565b60405180910390fd5b8047101561021757600080fd5b3373ffffffffffffffffffffffffffffffffffffffff166108fc829081150290604051600060405180830381858888f1935050505015801561025d573d6000803e3d6000fd5b507ff341246adaac6f497bc2a656f546ab9e182111d630394f0c57c710a59a2cb56760003383476040516102949493929190610d5b565b60405180910390a150565b6102a76107b3565b73ffffffffffffffffffffffffffffffffffffffff166102c5610692565b73ffffffffffffffffffffffffffffffffffffffff161461031b576040517f08c379a000000000000000000000000000000000000000000000000000000000815260040161031290610d3b565b60405180910390fd5b60003073ffffffffffffffffffffffffffffffffffffffff16638da5cb5b6040518163ffffffff1660e01b8152600401602060405180830381865afa158015610368573d6000803e3d6000fd5b505050506040513d601f19601f8201168201806040525081019061038c9190610db5565b90508073ffffffffffffffffffffffffffffffffffffffff16ff5b6103af6107b3565b73ffffffffffffffffffffffffffffffffffffffff166103cd610692565b73ffffffffffffffffffffffffffffffffffffffff1614610423576040517f08c379a000000000000000000000000000000000000000000000000000000000815260040161041a90610d3b565b60405180910390fd5b61042d60006107bb565b565b6000814210610473576040517f08c379a000000000000000000000000000000000000000000000000000000000815260040161046a90610e2e565b60405180910390fd5b60007f8b73c3c69bb8fe3d512ecc4cf759cc79239f7b179b0ffacaa9a75d522b39400f60026040516104a59190610f4e565b604051809103902060036040516104bc9190610f4e565b6040518091039020600154306040516020016104dc959493929190610f74565b60405160208183030381529060405280519060200120905060007f4e22cc164abc7c82752a150be143e7a7770ab7f4adc372158c041c225d5427358980519060200120898980519060200120898051906020012089896040516020016105489796959493929190610fc7565b604051602081830303815290604052805190602001209050600082826040516020016105759291906110ae565b60405160208183030381529060405280519060200120905060006001828f8f8f604051600081526020016040526040516105b294939291906110f4565b6020604051602081039080840390855afa1580156105d4573d6000803e3d6000fd5b505050602060405103519050600073ffffffffffffffffffffffffffffffffffffffff168173ffffffffffffffffffffffffffffffffffffffff161415610650576040517f08c379a000000000000000000000000000000000000000000000000000000000815260040161064790611185565b60405180910390fd5b8973ffffffffffffffffffffffffffffffffffffffff168173ffffffffffffffffffffffffffffffffffffffff16149450505050509998505050505050505050565b60008060009054906101000a900473ffffffffffffffffffffffffffffffffffffffff16905090565b6106c36107b3565b73ffffffffffffffffffffffffffffffffffffffff166106e1610692565b73ffffffffffffffffffffffffffffffffffffffff1614610737576040517f08c379a000000000000000000000000000000000000000000000000000000000815260040161072e90610d3b565b60405180910390fd5b600073ffffffffffffffffffffffffffffffffffffffff168173ffffffffffffffffffffffffffffffffffffffff1614156107a7576040517f08c379a000000000000000000000000000000000000000000000000000000000815260040161079e90611217565b60405180910390fd5b6107b0816107bb565b50565b600033905090565b60008060009054906101000a900473ffffffffffffffffffffffffffffffffffffffff169050816000806101000a81548173ffffffffffffffffffffffffffffffffffffffff021916908373ffffffffffffffffffffffffffffffffffffffff1602179055508173ffffffffffffffffffffffffffffffffffffffff168173ffffffffffffffffffffffffffffffffffffffff167f8be0079c531659141344cd1fd0a4f28419497f9722a3daafe3b4186f6b6457e060405160405180910390a35050565b6000819050919050565b6108928161087f565b82525050565b60006020820190506108ad6000830184610889565b92915050565b6000604051905090565b600080fd5b600080fd5b6108d08161087f565b81146108db57600080fd5b50565b6000813590506108ed816108c7565b92915050565b600060208284031215610909576109086108bd565b5b6000610917848285016108de565b91505092915050565b600060ff82169050919050565b61093681610920565b811461094157600080fd5b50565b6000813590506109538161092d565b92915050565b6000819050919050565b61096c81610959565b811461097757600080fd5b50565b60008135905061098981610963565b92915050565b600080fd5b600080fd5b6000601f19601f8301169050919050565b7f4e487b7100000000000000000000000000000000000000000000000000000000600052604160045260246000fd5b6109e282610999565b810181811067ffffffffffffffff82111715610a0157610a006109aa565b5b80604052505050565b6000610a146108b3565b9050610a2082826109d9565b919050565b600067ffffffffffffffff821115610a4057610a3f6109aa565b5b610a4982610999565b9050602081019050919050565b82818337600083830152505050565b6000610a78610a7384610a25565b610a0a565b905082815260208101848484011115610a9457610a93610994565b5b610a9f848285610a56565b509392505050565b600082601f830112610abc57610abb61098f565b5b8135610acc848260208601610a65565b91505092915050565b600073ffffffffffffffffffffffffffffffffffffffff82169050919050565b6000610b0082610ad5565b9050919050565b610b1081610af5565b8114610b1b57600080fd5b50565b600081359050610b2d81610b07565b92915050565b60008060008060008060008060006101208a8c031215610b5657610b556108bd565b5b6000610b648c828d01610944565b9950506020610b758c828d0161097a565b9850506040610b868c828d0161097a565b97505060608a013567ffffffffffffffff811115610ba757610ba66108c2565b5b610bb38c828d01610aa7565b9650506080610bc48c828d01610b1e565b95505060a08a013567ffffffffffffffff811115610be557610be46108c2565b5b610bf18c828d01610aa7565b94505060c08a013567ffffffffffffffff811115610c1257610c116108c2565b5b610c1e8c828d01610aa7565b93505060e0610c2f8c828d016108de565b925050610100610c418c828d016108de565b9150509295985092959850929598565b60008115159050919050565b610c6681610c51565b82525050565b6000602082019050610c816000830184610c5d565b92915050565b610c9081610af5565b82525050565b6000602082019050610cab6000830184610c87565b92915050565b600060208284031215610cc757610cc66108bd565b5b6000610cd584828501610b1e565b91505092915050565b600082825260208201905092915050565b7f4f776e61626c653a2063616c6c6572206973206e6f7420746865206f776e6572600082015250565b6000610d25602083610cde565b9150610d3082610cef565b602082019050919050565b60006020820190508181036000830152610d5481610d18565b9050919050565b6000608082019050610d706000830187610c87565b610d7d6020830186610c87565b610d8a6040830185610889565b610d976060830184610889565b95945050505050565b600081519050610daf81610b07565b92915050565b600060208284031215610dcb57610dca6108bd565b5b6000610dd984828501610da0565b91505092915050565b7f5369676e61747572652068617320657870697265640000000000000000000000600082015250565b6000610e18601583610cde565b9150610e2382610de2565b602082019050919050565b60006020820190508181036000830152610e4781610e0b565b9050919050565b7f4e487b7100000000000000000000000000000000000000000000000000000000600052602260045260246000fd5b60006002820490506001821680610e9557607f821691505b60208210811415610ea957610ea8610e4e565b5b50919050565b600081905092915050565b60008190508160005260206000209050919050565b60008154610edc81610e7d565b610ee68186610eaf565b94506001821660008114610f015760018114610f1257610f45565b60ff19831686528186019350610f45565b610f1b85610eba565b60005b83811015610f3d57815481890152600182019150602081019050610f1e565b838801955050505b50505092915050565b6000610f5a8284610ecf565b915081905092915050565b610f6e81610959565b82525050565b600060a082019050610f896000830188610f65565b610f966020830187610f65565b610fa36040830186610f65565b610fb06060830185610889565b610fbd6080830184610c87565b9695505050505050565b600060e082019050610fdc600083018a610f65565b610fe96020830189610f65565b610ff66040830188610c87565b6110036060830187610f65565b6110106080830186610f65565b61101d60a0830185610889565b61102a60c0830184610889565b98975050505050505050565b600081905092915050565b7f1901000000000000000000000000000000000000000000000000000000000000600082015250565b6000611077600283611036565b915061108282611041565b600282019050919050565b6000819050919050565b6110a86110a382610959565b61108d565b82525050565b60006110b98261106a565b91506110c58285611097565b6020820191506110d58284611097565b6020820191508190509392505050565b6110ee81610920565b82525050565b60006080820190506111096000830187610f65565b61111660208301866110e5565b6111236040830185610f65565b6111306060830184610f65565b95945050505050565b7f45434453413a20496e76616c6964207369676e61747572650000000000000000600082015250565b600061116f601883610cde565b915061117a82611139565b602082019050919050565b6000602082019050818103600083015261119e81611162565b9050919050565b7f4f776e61626c653a206e6577206f776e657220697320746865207a65726f206160008201527f6464726573730000000000000000000000000000000000000000000000000000602082015250565b6000611201602683610cde565b915061120c826111a5565b604082019050919050565b60006020820190508181036000830152611230816111f4565b905091905056fea2646970667358221220145f8586d8d369f512d99e2a519a0297d3cdeb273ea131e78da4a168497e90af64736f6c634300080a0033",
  "immutableReferences": {},
  "source": "// SPDX-License-Identifier: MIT\n// ----------------------------------------------------------------------------\n// This smart contract can easily verify any Ethereum signed message signature.\n// You just have to provide the Ethereum address that signed the message,\n// the  generated signature and the message that has to be verified.\n\n// Updated     : To support Solidity version ^0.8.3\n// Programmer  : Idris Bowman\n// Link        : https://idrisbowman.com\n// Last test   : locally 12/29/21 (https://github.com/V00D00-child/web3-cloud-verification/blob/main/test/Verificationeip712.test.js)\n\n// ----------------------------------------------------------------------------\nimport \"@openzeppelin/contracts/access/Ownable.sol\";\n\ncontract VerificationEIP712 is Ownable  {\n    uint256 private chainId;\n    string private name;\n    string private version;\n    address constant ETHER = address(0);\n    event Withdraw(address token, address user, uint256 amount, uint256 balance);\n\n    // Structs\n    struct Identity {\n        string action;\n        address signer; \n        string email;\n        string url;\n        string version;\n        uint256 nonce;\n        uint256 expiration;\n    }\n  \n    constructor(uint256 _chainId, string memory _name, string memory _version) Ownable() {\n        chainId = _chainId;\n        name = _name;\n        version = _version;\n    }\n\n    function verify(\n        uint8 v,\n        bytes32 r,\n        bytes32 s,\n        string memory action,\n        address sender,\n        string memory email,\n        string memory url,\n        uint256 nonce,\n        uint256 expiration\n    ) public view returns (bool) {\n            require(block.timestamp < expiration, \"Signature has expired\");\n\n            // get domain hash\n            bytes32 DOMAIN_SEPARATOR_HASH = keccak256(\n                abi.encode(\n                    keccak256(\"EIP712Domain(string name,string version,uint256 chainId,address verifyingContract)\"),\n                    keccak256(bytes(name)),\n                    keccak256(bytes(version)),\n                    chainId,\n                    address(this)\n                )\n            );\n\n            // get struct hash\n            bytes32 structHash = keccak256(\n                    abi.encode(\n                        keccak256(\"Identity(string action,address signer,string email,string url,uint256 nonce,uint256 expiration)\"),\n                        keccak256(bytes(action)),\n                        sender,\n                        keccak256(bytes(email)),\n                        keccak256(bytes(url)),\n                        nonce,\n                        expiration\n                    )\n            );\n\n            // verify signature\n            bytes32 hash = keccak256(abi.encodePacked(\"\\x19\\x01\", DOMAIN_SEPARATOR_HASH, structHash));\n            address signer = ecrecover(hash, v, r, s);\n            require(signer != address(0), \"ECDSA: Invalid signature\");\n            return signer == sender;\n    }\n\n        receive() external payable {}\n     \n    function getBalance() public view returns (uint) {\n        return address(this).balance;\n    }\n\n    function destory() public onlyOwner {\n        address _owner = this.owner();\n        selfdestruct(payable(_owner)); \n    }\n\n    function withdrawEther(uint256 _amount) payable public onlyOwner {\n        require(address(this).balance >= _amount);\n        payable(msg.sender).transfer(_amount);\n        emit Withdraw(ETHER, msg.sender, _amount, address(this).balance);\n    }\n}",
  "sourcePath": "/Users/corndog2/Desktop/blockchain-poc-v2/web3-cloud-verification/contracts/ethereum/VerificationEIP712.sol",
  "compiler": {
    "name": "solc",
    "version": "0.8.10+commit.fc410830.Emscripten.clang"
  },
  "schemaVersion": "3.4.3",
  "updatedAt": "2021-12-13T20:37:20.766Z",
  "networkType": "ethereum",
  "devdoc": {
    "kind": "dev",
    "methods": {
      "owner()": {
        "details": "Returns the address of the current owner."
      },
      "renounceOwnership()": {
        "details": "Leaves the contract without owner. It will not be possible to call `onlyOwner` functions anymore. Can only be called by the current owner. NOTE: Renouncing ownership will leave the contract without an owner, thereby removing any functionality that is only available to the owner."
      },
      "transferOwnership(address)": {
        "details": "Transfers ownership of the contract to a new account (`newOwner`). Can only be called by the current owner."
      }
    },
    "version": 1
  },
  "userdoc": {
    "kind": "user",
    "methods": {},
    "version": 1
  }
}