{
  "contractName": "VerificationBase",
  "abi": [
    {
      "inputs": [],
      "stateMutability": "nonpayable",
      "type": "constructor"
    },
    {
      "anonymous": false,
      "inputs": [
        {
          "indexed": true,
          "internalType": "address",
          "name": "previousOwner",
          "type": "address"
        },
        {
          "indexed": true,
          "internalType": "address",
          "name": "newOwner",
          "type": "address"
        }
      ],
      "name": "OwnershipTransferred",
      "type": "event"
    },
    {
      "anonymous": false,
      "inputs": [
        {
          "indexed": false,
          "internalType": "address",
          "name": "token",
          "type": "address"
        },
        {
          "indexed": false,
          "internalType": "address",
          "name": "user",
          "type": "address"
        },
        {
          "indexed": false,
          "internalType": "uint256",
          "name": "amount",
          "type": "uint256"
        },
        {
          "indexed": false,
          "internalType": "uint256",
          "name": "balance",
          "type": "uint256"
        }
      ],
      "name": "Withdraw",
      "type": "event"
    },
    {
      "inputs": [],
      "name": "owner",
      "outputs": [
        {
          "internalType": "address",
          "name": "",
          "type": "address"
        }
      ],
      "stateMutability": "view",
      "type": "function",
      "constant": true
    },
    {
      "inputs": [],
      "name": "renounceOwnership",
      "outputs": [],
      "stateMutability": "nonpayable",
      "type": "function"
    },
    {
      "inputs": [
        {
          "internalType": "address",
          "name": "newOwner",
          "type": "address"
        }
      ],
      "name": "transferOwnership",
      "outputs": [],
      "stateMutability": "nonpayable",
      "type": "function"
    },
    {
      "stateMutability": "payable",
      "type": "receive",
      "payable": true
    },
    {
      "inputs": [
        {
          "internalType": "address",
          "name": "_to",
          "type": "address"
        },
        {
          "internalType": "string",
          "name": "_message",
          "type": "string"
        },
        {
          "internalType": "uint256",
          "name": "_nonce",
          "type": "uint256"
        }
      ],
      "name": "getMessageHash",
      "outputs": [
        {
          "internalType": "bytes32",
          "name": "",
          "type": "bytes32"
        }
      ],
      "stateMutability": "pure",
      "type": "function",
      "constant": true
    },
    {
      "inputs": [
        {
          "internalType": "bytes32",
          "name": "_messageHash",
          "type": "bytes32"
        }
      ],
      "name": "getEthSignedMessageHash",
      "outputs": [
        {
          "internalType": "bytes32",
          "name": "",
          "type": "bytes32"
        }
      ],
      "stateMutability": "pure",
      "type": "function",
      "constant": true
    },
    {
      "inputs": [
        {
          "internalType": "address",
          "name": "_signer",
          "type": "address"
        },
        {
          "internalType": "bytes32",
          "name": "_messageHash",
          "type": "bytes32"
        },
        {
          "internalType": "bytes",
          "name": "signature",
          "type": "bytes"
        }
      ],
      "name": "verify",
      "outputs": [
        {
          "internalType": "bool",
          "name": "",
          "type": "bool"
        }
      ],
      "stateMutability": "pure",
      "type": "function",
      "constant": true
    },
    {
      "inputs": [
        {
          "internalType": "bytes32",
          "name": "_ethSignedMessageHash",
          "type": "bytes32"
        },
        {
          "internalType": "bytes",
          "name": "_signature",
          "type": "bytes"
        }
      ],
      "name": "recoverSigner",
      "outputs": [
        {
          "internalType": "address",
          "name": "",
          "type": "address"
        }
      ],
      "stateMutability": "pure",
      "type": "function",
      "constant": true
    },
    {
      "inputs": [
        {
          "internalType": "bytes",
          "name": "sig",
          "type": "bytes"
        }
      ],
      "name": "splitSignature",
      "outputs": [
        {
          "internalType": "bytes32",
          "name": "r",
          "type": "bytes32"
        },
        {
          "internalType": "bytes32",
          "name": "s",
          "type": "bytes32"
        },
        {
          "internalType": "uint8",
          "name": "v",
          "type": "uint8"
        }
      ],
      "stateMutability": "pure",
      "type": "function",
      "constant": true
    },
    {
      "inputs": [],
      "name": "getBalance",
      "outputs": [
        {
          "internalType": "uint256",
          "name": "",
          "type": "uint256"
        }
      ],
      "stateMutability": "view",
      "type": "function",
      "constant": true
    },
    {
      "inputs": [],
      "name": "destory",
      "outputs": [],
      "stateMutability": "nonpayable",
      "type": "function"
    },
    {
      "inputs": [
        {
          "internalType": "uint256",
          "name": "_amount",
          "type": "uint256"
        }
      ],
      "name": "withdrawEther",
      "outputs": [],
      "stateMutability": "payable",
      "type": "function",
      "payable": true
    }
  ],
  "bytecode": "0x608060405234801561001057600080fd5b5061002d61002261003260201b60201c565b61003a60201b60201c565b6100fe565b600033905090565b60008060009054906101000a900473ffffffffffffffffffffffffffffffffffffffff169050816000806101000a81548173ffffffffffffffffffffffffffffffffffffffff021916908373ffffffffffffffffffffffffffffffffffffffff1602179055508173ffffffffffffffffffffffffffffffffffffffff168173ffffffffffffffffffffffffffffffffffffffff167f8be0079c531659141344cd1fd0a4f28419497f9722a3daafe3b4186f6b6457e060405160405180910390a35050565b6112cd8061010d6000396000f3fe6080604052600436106100a05760003560e01c8063715018a611610064578063715018a6146101845780638da5cb5b1461019b57806397aba7f9146101c6578063a7bb580314610203578063f2fde38b14610242578063fa5408011461026b576100a7565b8063082d8f29146100ac57806312065fe0146100e95780631a86b550146101145780633bed33ce146101515780636bdebcc91461016d576100a7565b366100a757005b600080fd5b3480156100b857600080fd5b506100d360048036038101906100ce9190610ab9565b6102a8565b6040516100e09190610b41565b60405180910390f35b3480156100f557600080fd5b506100fe6102de565b60405161010b9190610b6b565b60405180910390f35b34801561012057600080fd5b5061013b60048036038101906101369190610c53565b6102e6565b6040516101489190610cdd565b60405180910390f35b61016b60048036038101906101669190610cf8565b610336565b005b34801561017957600080fd5b50610182610447565b005b34801561019057600080fd5b5061019961054f565b005b3480156101a757600080fd5b506101b06105d7565b6040516101bd9190610d34565b60405180910390f35b3480156101d257600080fd5b506101ed60048036038101906101e89190610d4f565b610600565b6040516101fa9190610d34565b60405180910390f35b34801561020f57600080fd5b5061022a60048036038101906102259190610dab565b61066f565b60405161023993929190610e10565b60405180910390f35b34801561024e57600080fd5b5061026960048036038101906102649190610e47565b6106d7565b005b34801561027757600080fd5b50610292600480360381019061028d9190610e74565b6107cf565b60405161029f9190610b41565b60405180910390f35b60008383836040516020016102bf93929190610f84565b6040516020818303038152906040528051906020012090509392505050565b600047905090565b6000806102f2846107cf565b90508473ffffffffffffffffffffffffffffffffffffffff166103158285610600565b73ffffffffffffffffffffffffffffffffffffffff16149150509392505050565b61033e6107ff565b73ffffffffffffffffffffffffffffffffffffffff1661035c6105d7565b73ffffffffffffffffffffffffffffffffffffffff16146103b2576040517f08c379a00000000000000000000000000000000000000000000000000000000081526004016103a99061101a565b60405180910390fd5b804710156103bf57600080fd5b3373ffffffffffffffffffffffffffffffffffffffff166108fc829081150290604051600060405180830381858888f19350505050158015610405573d6000803e3d6000fd5b507ff341246adaac6f497bc2a656f546ab9e182111d630394f0c57c710a59a2cb567600033834760405161043c949392919061103a565b60405180910390a150565b61044f6107ff565b73ffffffffffffffffffffffffffffffffffffffff1661046d6105d7565b73ffffffffffffffffffffffffffffffffffffffff16146104c3576040517f08c379a00000000000000000000000000000000000000000000000000000000081526004016104ba9061101a565b60405180910390fd5b60003073ffffffffffffffffffffffffffffffffffffffff16638da5cb5b6040518163ffffffff1660e01b8152600401602060405180830381865afa158015610510573d6000803e3d6000fd5b505050506040513d601f19601f820116820180604052508101906105349190611094565b90508073ffffffffffffffffffffffffffffffffffffffff16ff5b6105576107ff565b73ffffffffffffffffffffffffffffffffffffffff166105756105d7565b73ffffffffffffffffffffffffffffffffffffffff16146105cb576040517f08c379a00000000000000000000000000000000000000000000000000000000081526004016105c29061101a565b60405180910390fd5b6105d56000610807565b565b60008060009054906101000a900473ffffffffffffffffffffffffffffffffffffffff16905090565b60008060008061060f8561066f565b9250925092506001868285856040516000815260200160405260405161063894939291906110c1565b6020604051602081039080840390855afa15801561065a573d6000803e3d6000fd5b50505060206040510351935050505092915050565b600080600060418451146106b8576040517f08c379a00000000000000000000000000000000000000000000000000000000081526004016106af90611152565b60405180910390fd5b6020840151925060408401519150606084015160001a90509193909250565b6106df6107ff565b73ffffffffffffffffffffffffffffffffffffffff166106fd6105d7565b73ffffffffffffffffffffffffffffffffffffffff1614610753576040517f08c379a000000000000000000000000000000000000000000000000000000000815260040161074a9061101a565b60405180910390fd5b600073ffffffffffffffffffffffffffffffffffffffff168173ffffffffffffffffffffffffffffffffffffffff1614156107c3576040517f08c379a00000000000000000000000000000000000000000000000000000000081526004016107ba906111e4565b60405180910390fd5b6107cc81610807565b50565b6000816040516020016107e29190611271565b604051602081830303815290604052805190602001209050919050565b600033905090565b60008060009054906101000a900473ffffffffffffffffffffffffffffffffffffffff169050816000806101000a81548173ffffffffffffffffffffffffffffffffffffffff021916908373ffffffffffffffffffffffffffffffffffffffff1602179055508173ffffffffffffffffffffffffffffffffffffffff168173ffffffffffffffffffffffffffffffffffffffff167f8be0079c531659141344cd1fd0a4f28419497f9722a3daafe3b4186f6b6457e060405160405180910390a35050565b6000604051905090565b600080fd5b600080fd5b600073ffffffffffffffffffffffffffffffffffffffff82169050919050565b600061090a826108df565b9050919050565b61091a816108ff565b811461092557600080fd5b50565b60008135905061093781610911565b92915050565b600080fd5b600080fd5b6000601f19601f8301169050919050565b7f4e487b7100000000000000000000000000000000000000000000000000000000600052604160045260246000fd5b61099082610947565b810181811067ffffffffffffffff821117156109af576109ae610958565b5b80604052505050565b60006109c26108cb565b90506109ce8282610987565b919050565b600067ffffffffffffffff8211156109ee576109ed610958565b5b6109f782610947565b9050602081019050919050565b82818337600083830152505050565b6000610a26610a21846109d3565b6109b8565b905082815260208101848484011115610a4257610a41610942565b5b610a4d848285610a04565b509392505050565b600082601f830112610a6a57610a6961093d565b5b8135610a7a848260208601610a13565b91505092915050565b6000819050919050565b610a9681610a83565b8114610aa157600080fd5b50565b600081359050610ab381610a8d565b92915050565b600080600060608486031215610ad257610ad16108d5565b5b6000610ae086828701610928565b935050602084013567ffffffffffffffff811115610b0157610b006108da565b5b610b0d86828701610a55565b9250506040610b1e86828701610aa4565b9150509250925092565b6000819050919050565b610b3b81610b28565b82525050565b6000602082019050610b566000830184610b32565b92915050565b610b6581610a83565b82525050565b6000602082019050610b806000830184610b5c565b92915050565b610b8f81610b28565b8114610b9a57600080fd5b50565b600081359050610bac81610b86565b92915050565b600067ffffffffffffffff821115610bcd57610bcc610958565b5b610bd682610947565b9050602081019050919050565b6000610bf6610bf184610bb2565b6109b8565b905082815260208101848484011115610c1257610c11610942565b5b610c1d848285610a04565b509392505050565b600082601f830112610c3a57610c3961093d565b5b8135610c4a848260208601610be3565b91505092915050565b600080600060608486031215610c6c57610c6b6108d5565b5b6000610c7a86828701610928565b9350506020610c8b86828701610b9d565b925050604084013567ffffffffffffffff811115610cac57610cab6108da565b5b610cb886828701610c25565b9150509250925092565b60008115159050919050565b610cd781610cc2565b82525050565b6000602082019050610cf26000830184610cce565b92915050565b600060208284031215610d0e57610d0d6108d5565b5b6000610d1c84828501610aa4565b91505092915050565b610d2e816108ff565b82525050565b6000602082019050610d496000830184610d25565b92915050565b60008060408385031215610d6657610d656108d5565b5b6000610d7485828601610b9d565b925050602083013567ffffffffffffffff811115610d9557610d946108da565b5b610da185828601610c25565b9150509250929050565b600060208284031215610dc157610dc06108d5565b5b600082013567ffffffffffffffff811115610ddf57610dde6108da565b5b610deb84828501610c25565b91505092915050565b600060ff82169050919050565b610e0a81610df4565b82525050565b6000606082019050610e256000830186610b32565b610e326020830185610b32565b610e3f6040830184610e01565b949350505050565b600060208284031215610e5d57610e5c6108d5565b5b6000610e6b84828501610928565b91505092915050565b600060208284031215610e8a57610e896108d5565b5b6000610e9884828501610b9d565b91505092915050565b60008160601b9050919050565b6000610eb982610ea1565b9050919050565b6000610ecb82610eae565b9050919050565b610ee3610ede826108ff565b610ec0565b82525050565b600081519050919050565b600081905092915050565b60005b83811015610f1d578082015181840152602081019050610f02565b83811115610f2c576000848401525b50505050565b6000610f3d82610ee9565b610f478185610ef4565b9350610f57818560208601610eff565b80840191505092915050565b6000819050919050565b610f7e610f7982610a83565b610f63565b82525050565b6000610f908286610ed2565b601482019150610fa08285610f32565b9150610fac8284610f6d565b602082019150819050949350505050565b600082825260208201905092915050565b7f4f776e61626c653a2063616c6c6572206973206e6f7420746865206f776e6572600082015250565b6000611004602083610fbd565b915061100f82610fce565b602082019050919050565b6000602082019050818103600083015261103381610ff7565b9050919050565b600060808201905061104f6000830187610d25565b61105c6020830186610d25565b6110696040830185610b5c565b6110766060830184610b5c565b95945050505050565b60008151905061108e81610911565b92915050565b6000602082840312156110aa576110a96108d5565b5b60006110b88482850161107f565b91505092915050565b60006080820190506110d66000830187610b32565b6110e36020830186610e01565b6110f06040830185610b32565b6110fd6060830184610b32565b95945050505050565b7f696e76616c6964207369676e6174757265206c656e6774680000000000000000600082015250565b600061113c601883610fbd565b915061114782611106565b602082019050919050565b6000602082019050818103600083015261116b8161112f565b9050919050565b7f4f776e61626c653a206e6577206f776e657220697320746865207a65726f206160008201527f6464726573730000000000000000000000000000000000000000000000000000602082015250565b60006111ce602683610fbd565b91506111d982611172565b604082019050919050565b600060208201905081810360008301526111fd816111c1565b9050919050565b7f19457468657265756d205369676e6564204d6573736167653a0a333200000000600082015250565b600061123a601c83610ef4565b915061124582611204565b601c82019050919050565b6000819050919050565b61126b61126682610b28565b611250565b82525050565b600061127c8261122d565b9150611288828461125a565b6020820191508190509291505056fea264697066735822122003c6cfc06a668d31c13a39b205fb7e2e85b1d2d42fdcea7828a478b5fdf977ac64736f6c634300080a0033",
  "immutableReferences": {},
  "source": "// SPDX-License-Identifier: MIT\n// ----------------------------------------------------------------------------\n// This smart contract can easily verify any Ethereum signed message signature.\n// You just have to provide the Ethereum address that signed the message,\n// the  generated signature and the message that has to be verified.\n\n// Updated     : To support Solidity version ^0.8.3\n// Programmer  : Idris Bowman\n// Link        : https://idrisbowman.com\n// Last test   : locally 11/29/21 (https://github.com/V00D00-child/web3-cloud-verification/blob/main/test/VerificationBase.test.js)\n\n// ----------------------------------------------------------------------------\n\npragma solidity ^0.8.3;\n\nimport \"@openzeppelin/contracts/access/Ownable.sol\";\n\ncontract VerificationBase is Ownable {\n    address constant ETHER = address(0);\n    event Withdraw(address token, address user, uint256 amount, uint256 balance);\n\n    constructor() Ownable() {\n    }\n\n    function getMessageHash(address _to, string memory _message, uint _nonce) public pure returns (bytes32) {\n        return keccak256(abi.encodePacked(_to, _message, _nonce));\n    }\n\n    function getEthSignedMessageHash(bytes32 _messageHash) public pure returns (bytes32) {\n        /*\n        Signature is produced by signing a keccak256 hash with the following format:\n        \"\\x19Ethereum Signed Message\\n\" + len(msg) + msg\n        */\n        return\n            keccak256(\n                abi.encodePacked(\"\\x19Ethereum Signed Message:\\n32\", _messageHash)\n            );\n    }\n\n     /**\n     * @notice This function is used to verify a Ethereum Signed Message\n     * to this contract.\n     * @param _signer address Ethereum address that claimed to sign the message\n     * @param _messageHash bytes32 keccak256 message hashed to be signed\n     * @param signature bytes The signature\n    */\n    function verify(address _signer, bytes32 _messageHash, bytes memory signature) public pure returns (bool) {\n        bytes32 ethSignedMessageHash = getEthSignedMessageHash(_messageHash);\n\n        return recoverSigner(ethSignedMessageHash, signature) == _signer;\n    }\n\n    function recoverSigner(bytes32 _ethSignedMessageHash, bytes memory _signature) public pure returns (address) {\n        (bytes32 r, bytes32 s, uint8 v) = splitSignature(_signature);\n\n        return ecrecover(_ethSignedMessageHash, v, r, s);\n    }\n\n    function splitSignature(bytes memory sig) public pure\n        returns (\n            bytes32 r,\n            bytes32 s,\n            uint8 v\n        )\n    {\n        require(sig.length == 65, \"invalid signature length\");\n\n        assembly {\n            r := mload(add(sig, 32))\n            s := mload(add(sig, 64))\n            v := byte(0, mload(add(sig, 96)))\n        }\n    }\n\n    receive() external payable {}\n     \n    function getBalance() public view returns (uint) {\n        return address(this).balance;\n    }\n\n    function destory() public onlyOwner {\n        address _owner = this.owner();\n        selfdestruct(payable(_owner)); \n    }\n\n    function withdrawEther(uint256 _amount) payable public onlyOwner {\n        require(address(this).balance >= _amount);\n        payable(msg.sender).transfer(_amount);\n        emit Withdraw(ETHER, msg.sender, _amount, address(this).balance);\n    }\n}",
  "sourcePath": "/Users/corndog2/Desktop/blockchain-poc-v2/web3-cloud-verification/contracts/ethereum/VerificationBase.sol",
  "compiler": {
    "name": "solc",
    "version": "0.8.10+commit.fc410830.Emscripten.clang"
  },
  "schemaVersion": "3.4.3",
  "updatedAt": "2021-12-13T19:53:36.198Z",
  "networkType": "ethereum",
  "devdoc": {
    "kind": "dev",
    "methods": {
      "owner()": {
        "details": "Returns the address of the current owner."
      },
      "renounceOwnership()": {
        "details": "Leaves the contract without owner. It will not be possible to call `onlyOwner` functions anymore. Can only be called by the current owner. NOTE: Renouncing ownership will leave the contract without an owner, thereby removing any functionality that is only available to the owner."
      },
      "transferOwnership(address)": {
        "details": "Transfers ownership of the contract to a new account (`newOwner`). Can only be called by the current owner."
      },
      "verify(address,bytes32,bytes)": {
        "params": {
          "_messageHash": "bytes32 keccak256 message hashed to be signed",
          "_signer": "address Ethereum address that claimed to sign the message",
          "signature": "bytes The signature"
        }
      }
    },
    "version": 1
  },
  "userdoc": {
    "kind": "user",
    "methods": {
      "verify(address,bytes32,bytes)": {
        "notice": "This function is used to verify a Ethereum Signed Message to this contract."
      }
    },
    "version": 1
  }
}