{
  "contractName": "VerificationEIP712",
  "abi": [
    {
      "inputs": [
        {
          "internalType": "uint256",
          "name": "_chainId",
          "type": "uint256"
        },
        {
          "internalType": "string",
          "name": "_name",
          "type": "string"
        },
        {
          "internalType": "string",
          "name": "_version",
          "type": "string"
        }
      ],
      "stateMutability": "nonpayable",
      "type": "constructor"
    },
    {
      "anonymous": false,
      "inputs": [
        {
          "indexed": true,
          "internalType": "address",
          "name": "previousOwner",
          "type": "address"
        },
        {
          "indexed": true,
          "internalType": "address",
          "name": "newOwner",
          "type": "address"
        }
      ],
      "name": "OwnershipTransferred",
      "type": "event"
    },
    {
      "anonymous": false,
      "inputs": [
        {
          "indexed": false,
          "internalType": "address",
          "name": "token",
          "type": "address"
        },
        {
          "indexed": false,
          "internalType": "address",
          "name": "user",
          "type": "address"
        },
        {
          "indexed": false,
          "internalType": "uint256",
          "name": "amount",
          "type": "uint256"
        },
        {
          "indexed": false,
          "internalType": "uint256",
          "name": "balance",
          "type": "uint256"
        }
      ],
      "name": "Withdraw",
      "type": "event"
    },
    {
      "inputs": [],
      "name": "owner",
      "outputs": [
        {
          "internalType": "address",
          "name": "",
          "type": "address"
        }
      ],
      "stateMutability": "view",
      "type": "function",
      "constant": true
    },
    {
      "inputs": [],
      "name": "renounceOwnership",
      "outputs": [],
      "stateMutability": "nonpayable",
      "type": "function"
    },
    {
      "inputs": [
        {
          "internalType": "address",
          "name": "newOwner",
          "type": "address"
        }
      ],
      "name": "transferOwnership",
      "outputs": [],
      "stateMutability": "nonpayable",
      "type": "function"
    },
    {
      "stateMutability": "payable",
      "type": "receive",
      "payable": true
    },
    {
      "inputs": [
        {
          "internalType": "uint8",
          "name": "v",
          "type": "uint8"
        },
        {
          "internalType": "bytes32",
          "name": "r",
          "type": "bytes32"
        },
        {
          "internalType": "bytes32",
          "name": "s",
          "type": "bytes32"
        },
        {
          "internalType": "string",
          "name": "action",
          "type": "string"
        },
        {
          "internalType": "address",
          "name": "sender",
          "type": "address"
        },
        {
          "internalType": "string",
          "name": "email",
          "type": "string"
        },
        {
          "internalType": "string",
          "name": "url",
          "type": "string"
        },
        {
          "internalType": "string",
          "name": "nonce",
          "type": "string"
        },
        {
          "internalType": "uint256",
          "name": "expiration",
          "type": "uint256"
        }
      ],
      "name": "verify",
      "outputs": [
        {
          "internalType": "bool",
          "name": "",
          "type": "bool"
        }
      ],
      "stateMutability": "view",
      "type": "function",
      "constant": true
    },
    {
      "inputs": [],
      "name": "getBalance",
      "outputs": [
        {
          "internalType": "uint256",
          "name": "",
          "type": "uint256"
        }
      ],
      "stateMutability": "view",
      "type": "function",
      "constant": true
    },
    {
      "inputs": [],
      "name": "destory",
      "outputs": [],
      "stateMutability": "nonpayable",
      "type": "function"
    },
    {
      "inputs": [
        {
          "internalType": "uint256",
          "name": "_amount",
          "type": "uint256"
        }
      ],
      "name": "withdrawEther",
      "outputs": [],
      "stateMutability": "payable",
      "type": "function",
      "payable": true
    }
  ],
  "bytecode": "0x60806040523480156200001157600080fd5b506040516200178c3803806200178c8339818101604052810190620000379190620003ed565b620000576200004b6200009960201b60201c565b620000a160201b60201c565b8260018190555081600290805190602001906200007692919062000165565b5080600390805190602001906200008f92919062000165565b50505050620004ec565b600033905090565b60008060009054906101000a900473ffffffffffffffffffffffffffffffffffffffff169050816000806101000a81548173ffffffffffffffffffffffffffffffffffffffff021916908373ffffffffffffffffffffffffffffffffffffffff1602179055508173ffffffffffffffffffffffffffffffffffffffff168173ffffffffffffffffffffffffffffffffffffffff167f8be0079c531659141344cd1fd0a4f28419497f9722a3daafe3b4186f6b6457e060405160405180910390a35050565b8280546200017390620004b6565b90600052602060002090601f016020900481019282620001975760008555620001e3565b82601f10620001b257805160ff1916838001178555620001e3565b82800160010185558215620001e3579182015b82811115620001e2578251825591602001919060010190620001c5565b5b509050620001f29190620001f6565b5090565b5b8082111562000211576000816000905550600101620001f7565b5090565b6000604051905090565b600080fd5b600080fd5b6000819050919050565b6200023e8162000229565b81146200024a57600080fd5b50565b6000815190506200025e8162000233565b92915050565b600080fd5b600080fd5b6000601f19601f8301169050919050565b7f4e487b7100000000000000000000000000000000000000000000000000000000600052604160045260246000fd5b620002b9826200026e565b810181811067ffffffffffffffff82111715620002db57620002da6200027f565b5b80604052505050565b6000620002f062000215565b9050620002fe8282620002ae565b919050565b600067ffffffffffffffff8211156200032157620003206200027f565b5b6200032c826200026e565b9050602081019050919050565b60005b83811015620003595780820151818401526020810190506200033c565b8381111562000369576000848401525b50505050565b600062000386620003808462000303565b620002e4565b905082815260208101848484011115620003a557620003a462000269565b5b620003b284828562000339565b509392505050565b600082601f830112620003d257620003d162000264565b5b8151620003e48482602086016200036f565b91505092915050565b6000806000606084860312156200040957620004086200021f565b5b600062000419868287016200024d565b935050602084015167ffffffffffffffff8111156200043d576200043c62000224565b5b6200044b86828701620003ba565b925050604084015167ffffffffffffffff8111156200046f576200046e62000224565b5b6200047d86828701620003ba565b9150509250925092565b7f4e487b7100000000000000000000000000000000000000000000000000000000600052602260045260246000fd5b60006002820490506001821680620004cf57607f821691505b60208210811415620004e657620004e562000487565b5b50919050565b61129080620004fc6000396000f3fe6080604052600436106100745760003560e01c8063715018a61161004e578063715018a6146100de57806383dd74e5146100f55780638da5cb5b14610132578063f2fde38b1461015d5761007b565b806312065fe0146100805780633bed33ce146100ab5780636bdebcc9146100c75761007b565b3661007b57005b600080fd5b34801561008c57600080fd5b50610095610186565b6040516100a2919061089f565b60405180910390f35b6100c560048036038101906100c091906108fa565b61018e565b005b3480156100d357600080fd5b506100dc61029f565b005b3480156100ea57600080fd5b506100f36103a7565b005b34801561010157600080fd5b5061011c60048036038101906101179190610b3a565b61042f565b6040516101299190610c8f565b60405180910390f35b34801561013e57600080fd5b50610147610699565b6040516101549190610cb9565b60405180910390f35b34801561016957600080fd5b50610184600480360381019061017f9190610cd4565b6106c2565b005b600047905090565b6101966107ba565b73ffffffffffffffffffffffffffffffffffffffff166101b4610699565b73ffffffffffffffffffffffffffffffffffffffff161461020a576040517f08c379a000000000000000000000000000000000000000000000000000000000815260040161020190610d5e565b60405180910390fd5b8047101561021757600080fd5b3373ffffffffffffffffffffffffffffffffffffffff166108fc829081150290604051600060405180830381858888f1935050505015801561025d573d6000803e3d6000fd5b507ff341246adaac6f497bc2a656f546ab9e182111d630394f0c57c710a59a2cb56760003383476040516102949493929190610d7e565b60405180910390a150565b6102a76107ba565b73ffffffffffffffffffffffffffffffffffffffff166102c5610699565b73ffffffffffffffffffffffffffffffffffffffff161461031b576040517f08c379a000000000000000000000000000000000000000000000000000000000815260040161031290610d5e565b60405180910390fd5b60003073ffffffffffffffffffffffffffffffffffffffff16638da5cb5b6040518163ffffffff1660e01b8152600401602060405180830381865afa158015610368573d6000803e3d6000fd5b505050506040513d601f19601f8201168201806040525081019061038c9190610dd8565b90508073ffffffffffffffffffffffffffffffffffffffff16ff5b6103af6107ba565b73ffffffffffffffffffffffffffffffffffffffff166103cd610699565b73ffffffffffffffffffffffffffffffffffffffff1614610423576040517f08c379a000000000000000000000000000000000000000000000000000000000815260040161041a90610d5e565b60405180910390fd5b61042d60006107c2565b565b6000814210610473576040517f08c379a000000000000000000000000000000000000000000000000000000000815260040161046a90610e51565b60405180910390fd5b60007f8b73c3c69bb8fe3d512ecc4cf759cc79239f7b179b0ffacaa9a75d522b39400f60026040516104a59190610f71565b604051809103902060036040516104bc9190610f71565b6040518091039020600154306040516020016104dc959493929190610f97565b60405160208183030381529060405280519060200120905060007f69eefcdfe26c8c4cf134cd615758a675e7ff69ab8bd53aa757f603d58e84089d8980519060200120898980519060200120898051906020012089805190602001208960405160200161054f9796959493929190610fea565b6040516020818303038152906040528051906020012090506000828260405160200161057c9291906110d1565b60405160208183030381529060405280519060200120905060006001828f8f8f604051600081526020016040526040516105b99493929190611117565b6020604051602081039080840390855afa1580156105db573d6000803e3d6000fd5b505050602060405103519050600073ffffffffffffffffffffffffffffffffffffffff168173ffffffffffffffffffffffffffffffffffffffff161415610657576040517f08c379a000000000000000000000000000000000000000000000000000000000815260040161064e906111a8565b60405180910390fd5b8973ffffffffffffffffffffffffffffffffffffffff168173ffffffffffffffffffffffffffffffffffffffff16149450505050509998505050505050505050565b60008060009054906101000a900473ffffffffffffffffffffffffffffffffffffffff16905090565b6106ca6107ba565b73ffffffffffffffffffffffffffffffffffffffff166106e8610699565b73ffffffffffffffffffffffffffffffffffffffff161461073e576040517f08c379a000000000000000000000000000000000000000000000000000000000815260040161073590610d5e565b60405180910390fd5b600073ffffffffffffffffffffffffffffffffffffffff168173ffffffffffffffffffffffffffffffffffffffff1614156107ae576040517f08c379a00000000000000000000000000000000000000000000000000000000081526004016107a59061123a565b60405180910390fd5b6107b7816107c2565b50565b600033905090565b60008060009054906101000a900473ffffffffffffffffffffffffffffffffffffffff169050816000806101000a81548173ffffffffffffffffffffffffffffffffffffffff021916908373ffffffffffffffffffffffffffffffffffffffff1602179055508173ffffffffffffffffffffffffffffffffffffffff168173ffffffffffffffffffffffffffffffffffffffff167f8be0079c531659141344cd1fd0a4f28419497f9722a3daafe3b4186f6b6457e060405160405180910390a35050565b6000819050919050565b61089981610886565b82525050565b60006020820190506108b46000830184610890565b92915050565b6000604051905090565b600080fd5b600080fd5b6108d781610886565b81146108e257600080fd5b50565b6000813590506108f4816108ce565b92915050565b6000602082840312156109105761090f6108c4565b5b600061091e848285016108e5565b91505092915050565b600060ff82169050919050565b61093d81610927565b811461094857600080fd5b50565b60008135905061095a81610934565b92915050565b6000819050919050565b61097381610960565b811461097e57600080fd5b50565b6000813590506109908161096a565b92915050565b600080fd5b600080fd5b6000601f19601f8301169050919050565b7f4e487b7100000000000000000000000000000000000000000000000000000000600052604160045260246000fd5b6109e9826109a0565b810181811067ffffffffffffffff82111715610a0857610a076109b1565b5b80604052505050565b6000610a1b6108ba565b9050610a2782826109e0565b919050565b600067ffffffffffffffff821115610a4757610a466109b1565b5b610a50826109a0565b9050602081019050919050565b82818337600083830152505050565b6000610a7f610a7a84610a2c565b610a11565b905082815260208101848484011115610a9b57610a9a61099b565b5b610aa6848285610a5d565b509392505050565b600082601f830112610ac357610ac2610996565b5b8135610ad3848260208601610a6c565b91505092915050565b600073ffffffffffffffffffffffffffffffffffffffff82169050919050565b6000610b0782610adc565b9050919050565b610b1781610afc565b8114610b2257600080fd5b50565b600081359050610b3481610b0e565b92915050565b60008060008060008060008060006101208a8c031215610b5d57610b5c6108c4565b5b6000610b6b8c828d0161094b565b9950506020610b7c8c828d01610981565b9850506040610b8d8c828d01610981565b97505060608a013567ffffffffffffffff811115610bae57610bad6108c9565b5b610bba8c828d01610aae565b9650506080610bcb8c828d01610b25565b95505060a08a013567ffffffffffffffff811115610bec57610beb6108c9565b5b610bf88c828d01610aae565b94505060c08a013567ffffffffffffffff811115610c1957610c186108c9565b5b610c258c828d01610aae565b93505060e08a013567ffffffffffffffff811115610c4657610c456108c9565b5b610c528c828d01610aae565b925050610100610c648c828d016108e5565b9150509295985092959850929598565b60008115159050919050565b610c8981610c74565b82525050565b6000602082019050610ca46000830184610c80565b92915050565b610cb381610afc565b82525050565b6000602082019050610cce6000830184610caa565b92915050565b600060208284031215610cea57610ce96108c4565b5b6000610cf884828501610b25565b91505092915050565b600082825260208201905092915050565b7f4f776e61626c653a2063616c6c6572206973206e6f7420746865206f776e6572600082015250565b6000610d48602083610d01565b9150610d5382610d12565b602082019050919050565b60006020820190508181036000830152610d7781610d3b565b9050919050565b6000608082019050610d936000830187610caa565b610da06020830186610caa565b610dad6040830185610890565b610dba6060830184610890565b95945050505050565b600081519050610dd281610b0e565b92915050565b600060208284031215610dee57610ded6108c4565b5b6000610dfc84828501610dc3565b91505092915050565b7f5369676e61747572652068617320657870697265640000000000000000000000600082015250565b6000610e3b601583610d01565b9150610e4682610e05565b602082019050919050565b60006020820190508181036000830152610e6a81610e2e565b9050919050565b7f4e487b7100000000000000000000000000000000000000000000000000000000600052602260045260246000fd5b60006002820490506001821680610eb857607f821691505b60208210811415610ecc57610ecb610e71565b5b50919050565b600081905092915050565b60008190508160005260206000209050919050565b60008154610eff81610ea0565b610f098186610ed2565b94506001821660008114610f245760018114610f3557610f68565b60ff19831686528186019350610f68565b610f3e85610edd565b60005b83811015610f6057815481890152600182019150602081019050610f41565b838801955050505b50505092915050565b6000610f7d8284610ef2565b915081905092915050565b610f9181610960565b82525050565b600060a082019050610fac6000830188610f88565b610fb96020830187610f88565b610fc66040830186610f88565b610fd36060830185610890565b610fe06080830184610caa565b9695505050505050565b600060e082019050610fff600083018a610f88565b61100c6020830189610f88565b6110196040830188610caa565b6110266060830187610f88565b6110336080830186610f88565b61104060a0830185610f88565b61104d60c0830184610890565b98975050505050505050565b600081905092915050565b7f1901000000000000000000000000000000000000000000000000000000000000600082015250565b600061109a600283611059565b91506110a582611064565b600282019050919050565b6000819050919050565b6110cb6110c682610960565b6110b0565b82525050565b60006110dc8261108d565b91506110e882856110ba565b6020820191506110f882846110ba565b6020820191508190509392505050565b61111181610927565b82525050565b600060808201905061112c6000830187610f88565b6111396020830186611108565b6111466040830185610f88565b6111536060830184610f88565b95945050505050565b7f45434453413a20496e76616c6964207369676e61747572650000000000000000600082015250565b6000611192601883610d01565b915061119d8261115c565b602082019050919050565b600060208201905081810360008301526111c181611185565b9050919050565b7f4f776e61626c653a206e6577206f776e657220697320746865207a65726f206160008201527f6464726573730000000000000000000000000000000000000000000000000000602082015250565b6000611224602683610d01565b915061122f826111c8565b604082019050919050565b6000602082019050818103600083015261125381611217565b905091905056fea2646970667358221220dbc7c2e0f7de2196520e9692631262f3a4000c335ec916711b197ce2b37d268164736f6c634300080b0033",
  "immutableReferences": {},
  "source": "// SPDX-License-Identifier: MIT\n// ----------------------------------------------------------------------------\n// This smart contract can easily verify any Ethereum signed message signature.\n// You just have to provide the Ethereum address that signed the message,\n// the  generated signature and the message that has to be verified.\n\n// Updated     : To support Solidity version ^0.8.3\n// Programmer  : Idris Bowman\n// Link        : https://idrisbowman.com\n// Last test   : locally 12/29/21 (https://github.com/V00D00-child/web3-cloud-verification/blob/main/test/Verificationeip712.test.js)\n\n// ----------------------------------------------------------------------------\nimport \"@openzeppelin/contracts/access/Ownable.sol\";\n\ncontract VerificationEIP712 is Ownable  {\n    uint256 private chainId;\n    string private name;\n    string private version;\n    address constant ETHER = address(0);\n    event Withdraw(address token, address user, uint256 amount, uint256 balance);\n\n    // Structs\n    struct Identity {\n        string action;\n        address signer; \n        string email;\n        string url;\n        string version;\n        string nonce;\n        uint256 expiration;\n    }\n  \n    constructor(uint256 _chainId, string memory _name, string memory _version) Ownable() {\n        chainId = _chainId;\n        name = _name;\n        version = _version;\n    }\n\n    function verify(\n        uint8 v,\n        bytes32 r,\n        bytes32 s,\n        string memory action,\n        address sender,\n        string memory email,\n        string memory url,\n        string memory nonce,\n        uint256 expiration\n    ) public view returns (bool) {\n            require(block.timestamp < expiration, \"Signature has expired\");\n\n            // get domain hash\n            bytes32 DOMAIN_SEPARATOR_HASH = keccak256(\n                abi.encode(\n                    keccak256(\"EIP712Domain(string name,string version,uint256 chainId,address verifyingContract)\"),\n                    keccak256(bytes(name)),\n                    keccak256(bytes(version)),\n                    chainId,\n                    address(this)\n                )\n            );\n\n            // get struct hash\n            bytes32 structHash = keccak256(\n                    abi.encode(\n                        keccak256(\"Identity(string action,address signer,string email,string url,string nonce,uint256 expiration)\"),\n                        keccak256(bytes(action)),\n                        sender,\n                        keccak256(bytes(email)),\n                        keccak256(bytes(url)),\n                        keccak256(bytes(nonce)),\n                        expiration\n                    )\n            );\n\n            // verify signature\n            bytes32 hash = keccak256(abi.encodePacked(\"\\x19\\x01\", DOMAIN_SEPARATOR_HASH, structHash));\n            address signer = ecrecover(hash, v, r, s);\n            require(signer != address(0), \"ECDSA: Invalid signature\");\n            return signer == sender;\n    }\n\n        receive() external payable {}\n     \n    function getBalance() public view returns (uint) {\n        return address(this).balance;\n    }\n\n    function destory() public onlyOwner {\n        address _owner = this.owner();\n        selfdestruct(payable(_owner)); \n    }\n\n    function withdrawEther(uint256 _amount) payable public onlyOwner {\n        require(address(this).balance >= _amount);\n        payable(msg.sender).transfer(_amount);\n        emit Withdraw(ETHER, msg.sender, _amount, address(this).balance);\n    }\n}",
  "sourcePath": "/Users/corndog2/Desktop/web3-cloud-project/web3-cloud-verification/contracts/ethereum/VerificationEIP712.sol",
  "compiler": {
    "name": "solc",
    "version": "0.8.11+commit.d7f03943.Emscripten.clang"
  },
  "schemaVersion": "3.4.3",
  "updatedAt": "2021-12-20T21:06:25.063Z",
  "networkType": "ethereum",
  "devdoc": {
    "kind": "dev",
    "methods": {
      "owner()": {
        "details": "Returns the address of the current owner."
      },
      "renounceOwnership()": {
        "details": "Leaves the contract without owner. It will not be possible to call `onlyOwner` functions anymore. Can only be called by the current owner. NOTE: Renouncing ownership will leave the contract without an owner, thereby removing any functionality that is only available to the owner."
      },
      "transferOwnership(address)": {
        "details": "Transfers ownership of the contract to a new account (`newOwner`). Can only be called by the current owner."
      }
    },
    "version": 1
  },
  "userdoc": {
    "kind": "user",
    "methods": {},
    "version": 1
  }
}